{
  "_format": "hh-sol-artifact-1",
  "contractName": "ProductKeys",
  "sourceName": "contracts/ProductKeys.sol",
  "abi": [
    {
      "inputs": [
        {
          "internalType": "uint256",
          "name": "productFee",
          "type": "uint256"
        },
        {
          "internalType": "uint256",
          "name": "holderFee",
          "type": "uint256"
        }
      ],
      "stateMutability": "nonpayable",
      "type": "constructor"
    },
    {
      "anonymous": false,
      "inputs": [
        {
          "indexed": true,
          "internalType": "address",
          "name": "_safe",
          "type": "address"
        },
        {
          "indexed": true,
          "internalType": "address",
          "name": "_owner",
          "type": "address"
        },
        {
          "indexed": false,
          "internalType": "string",
          "name": "_productSlug",
          "type": "string"
        }
      ],
      "name": "ProductCreated",
      "type": "event"
    },
    {
      "anonymous": false,
      "inputs": [
        {
          "indexed": false,
          "internalType": "string",
          "name": "_productSlug",
          "type": "string"
        },
        {
          "indexed": true,
          "internalType": "address",
          "name": "_trader",
          "type": "address"
        },
        {
          "indexed": false,
          "internalType": "uint256",
          "name": "_amountOfKeys",
          "type": "uint256"
        },
        {
          "indexed": false,
          "internalType": "uint256",
          "name": "_ethSpent",
          "type": "uint256"
        },
        {
          "indexed": false,
          "internalType": "uint256",
          "name": "_ownerFee",
          "type": "uint256"
        },
        {
          "indexed": false,
          "internalType": "uint256",
          "name": "_sellPrice",
          "type": "uint256"
        },
        {
          "indexed": false,
          "internalType": "uint256",
          "name": "_nextPrice",
          "type": "uint256"
        }
      ],
      "name": "ProductKeyBought",
      "type": "event"
    },
    {
      "anonymous": false,
      "inputs": [
        {
          "indexed": false,
          "internalType": "string",
          "name": "_productSlug",
          "type": "string"
        },
        {
          "indexed": true,
          "internalType": "address",
          "name": "_trader",
          "type": "address"
        },
        {
          "indexed": false,
          "internalType": "uint256",
          "name": "_amountOfKeys",
          "type": "uint256"
        },
        {
          "indexed": false,
          "internalType": "uint256",
          "name": "_ethSpent",
          "type": "uint256"
        },
        {
          "indexed": false,
          "internalType": "uint256",
          "name": "_ownerFee",
          "type": "uint256"
        },
        {
          "indexed": false,
          "internalType": "uint256",
          "name": "_sellPrice",
          "type": "uint256"
        },
        {
          "indexed": false,
          "internalType": "uint256",
          "name": "_nextPrice",
          "type": "uint256"
        }
      ],
      "name": "ProductKeySold",
      "type": "event"
    },
    {
      "inputs": [
        {
          "internalType": "string",
          "name": "productSlug",
          "type": "string"
        }
      ],
      "name": "buyKey",
      "outputs": [],
      "stateMutability": "payable",
      "type": "function"
    },
    {
      "inputs": [
        {
          "internalType": "string",
          "name": "productSlug",
          "type": "string"
        }
      ],
      "name": "claimHolderFees",
      "outputs": [],
      "stateMutability": "payable",
      "type": "function"
    },
    {
      "inputs": [
        {
          "internalType": "address",
          "name": "safe",
          "type": "address"
        },
        {
          "internalType": "string",
          "name": "name",
          "type": "string"
        }
      ],
      "name": "createProduct",
      "outputs": [],
      "stateMutability": "nonpayable",
      "type": "function"
    },
    {
      "inputs": [
        {
          "internalType": "string",
          "name": "productSlug",
          "type": "string"
        }
      ],
      "name": "getBuyPrice",
      "outputs": [
        {
          "internalType": "uint256",
          "name": "",
          "type": "uint256"
        }
      ],
      "stateMutability": "view",
      "type": "function"
    },
    {
      "inputs": [
        {
          "internalType": "string",
          "name": "productSlug",
          "type": "string"
        }
      ],
      "name": "getBuyPriceAfterFee",
      "outputs": [
        {
          "internalType": "uint256",
          "name": "",
          "type": "uint256"
        }
      ],
      "stateMutability": "view",
      "type": "function"
    },
    {
      "inputs": [
        {
          "internalType": "uint256",
          "name": "supply",
          "type": "uint256"
        }
      ],
      "name": "getPrice",
      "outputs": [
        {
          "internalType": "uint256",
          "name": "",
          "type": "uint256"
        }
      ],
      "stateMutability": "pure",
      "type": "function"
    },
    {
      "inputs": [
        {
          "internalType": "string",
          "name": "productSlug",
          "type": "string"
        }
      ],
      "name": "getSellPrice",
      "outputs": [
        {
          "internalType": "uint256",
          "name": "",
          "type": "uint256"
        }
      ],
      "stateMutability": "view",
      "type": "function"
    },
    {
      "inputs": [
        {
          "internalType": "string",
          "name": "productSlug",
          "type": "string"
        }
      ],
      "name": "getSellPriceAfterFee",
      "outputs": [
        {
          "internalType": "uint256",
          "name": "",
          "type": "uint256"
        }
      ],
      "stateMutability": "view",
      "type": "function"
    },
    {
      "inputs": [],
      "name": "holderFeePercent",
      "outputs": [
        {
          "internalType": "uint256",
          "name": "",
          "type": "uint256"
        }
      ],
      "stateMutability": "view",
      "type": "function"
    },
    {
      "inputs": [
        {
          "internalType": "address",
          "name": "",
          "type": "address"
        }
      ],
      "name": "owners",
      "outputs": [
        {
          "internalType": "string",
          "name": "",
          "type": "string"
        }
      ],
      "stateMutability": "view",
      "type": "function"
    },
    {
      "inputs": [],
      "name": "productFeePercent",
      "outputs": [
        {
          "internalType": "uint256",
          "name": "",
          "type": "uint256"
        }
      ],
      "stateMutability": "view",
      "type": "function"
    },
    {
      "inputs": [
        {
          "internalType": "string",
          "name": "",
          "type": "string"
        },
        {
          "internalType": "address",
          "name": "",
          "type": "address"
        }
      ],
      "name": "productHolderFees",
      "outputs": [
        {
          "internalType": "uint256",
          "name": "",
          "type": "uint256"
        }
      ],
      "stateMutability": "view",
      "type": "function"
    },
    {
      "inputs": [
        {
          "internalType": "string",
          "name": "",
          "type": "string"
        },
        {
          "internalType": "address",
          "name": "",
          "type": "address"
        }
      ],
      "name": "productKeys",
      "outputs": [
        {
          "internalType": "uint256",
          "name": "",
          "type": "uint256"
        }
      ],
      "stateMutability": "view",
      "type": "function"
    },
    {
      "inputs": [
        {
          "internalType": "string",
          "name": "",
          "type": "string"
        }
      ],
      "name": "productKeysSupply",
      "outputs": [
        {
          "internalType": "uint256",
          "name": "",
          "type": "uint256"
        }
      ],
      "stateMutability": "view",
      "type": "function"
    },
    {
      "inputs": [
        {
          "internalType": "string",
          "name": "",
          "type": "string"
        }
      ],
      "name": "safes",
      "outputs": [
        {
          "internalType": "address",
          "name": "",
          "type": "address"
        }
      ],
      "stateMutability": "view",
      "type": "function"
    },
    {
      "inputs": [
        {
          "internalType": "string",
          "name": "productSlug",
          "type": "string"
        }
      ],
      "name": "sellKeys",
      "outputs": [],
      "stateMutability": "payable",
      "type": "function"
    }
  ],
  "bytecode": "0x60806040523480156200001157600080fd5b5060405162001eee38038062001eee83398181016040528101906200003791906200008d565b81600181905550806000819055505050620000d4565b600080fd5b6000819050919050565b620000678162000052565b81146200007357600080fd5b50565b60008151905062000087816200005c565b92915050565b60008060408385031215620000a757620000a66200004d565b5b6000620000b78582860162000076565b9250506020620000ca8582860162000076565b9150509250929050565b611e0a80620000e46000396000f3fe6080604052600436106100f35760003560e01c8063c569aec61161008a578063ddb0984211610059578063ddb098421461036e578063e1aa7b871461038a578063e7572230146103c7578063f4f9f89f14610404576100f3565b8063c569aec61461028c578063cb3f00d2146102b7578063d2954732146102f4578063d8c1b33714610331576100f3565b806344cce901116100c657806344cce901146101b95780635f5b9e5f146101f657806381ed60aa14610233578063a348890e14610270576100f3565b8063022914a7146100f857806315fae2e4146101355780631c395787146101725780633ebb2b1e1461018e575b600080fd5b34801561010457600080fd5b5061011f600480360381019061011a9190611142565b61042d565b60405161012c91906111ff565b60405180910390f35b34801561014157600080fd5b5061015c60048036038101906101579190611356565b6104cd565b60405161016991906113b8565b60405180910390f35b61018c60048036038101906101879190611356565b6104fd565b005b34801561019a57600080fd5b506101a361082b565b6040516101b091906113b8565b60405180910390f35b3480156101c557600080fd5b506101e060048036038101906101db91906113d3565b610831565b6040516101ed91906113b8565b60405180910390f35b34801561020257600080fd5b5061021d600480360381019061021891906113d3565b61086c565b60405161022a91906113b8565b60405180910390f35b34801561023f57600080fd5b5061025a60048036038101906102559190611356565b6108a7565b60405161026791906113b8565b60405180910390f35b61028a60048036038101906102859190611356565b6108ef565b005b34801561029857600080fd5b506102a1610cd3565b6040516102ae91906113b8565b60405180910390f35b3480156102c357600080fd5b506102de60048036038101906102d99190611356565b610cd9565b6040516102eb91906113b8565b60405180910390f35b34801561030057600080fd5b5061031b60048036038101906103169190611356565b610d21565b60405161032891906113b8565b60405180910390f35b34801561033d57600080fd5b5061035860048036038101906103539190611356565b610d5d565b604051610365919061143e565b60405180910390f35b61038860048036038101906103839190611356565b610da6565b005b34801561039657600080fd5b506103b160048036038101906103ac9190611356565b610da9565b6040516103be91906113b8565b60405180910390f35b3480156103d357600080fd5b506103ee60048036038101906103e99190611485565b610dd7565b6040516103fb91906113b8565b60405180910390f35b34801561041057600080fd5b5061042b600480360381019061042691906114b2565b610df3565b005b6004602052806000526040600020600091509050805461044c9061153d565b80601f01602080910402602001604051908101604052809291908181526020018280546104789061153d565b80156104c55780601f1061049a576101008083540402835291602001916104c5565b820191906000526020600020905b8154815290600101906020018083116104a857829003601f168201915b505050505081565b60006104f66005836040516104e291906115aa565b908152602001604051809103902054610dd7565b9050919050565b600060058260405161050f91906115aa565b908152602001604051809103902054905060008103610563576040517f08c379a000000000000000000000000000000000000000000000000000000000815260040161055a9061160d565b60405180910390fd5b600061057a600183610575919061165c565b610dd7565b9050600061058783610dd7565b90506000670de0b6b3a7640000600154836105a29190611690565b6105ac9190611701565b90506000670de0b6b3a7640000600054846105c79190611690565b6105d19190611701565b90508082846105e0919061165c565b6105ea919061165c565b34101561062c576040517f08c379a00000000000000000000000000000000000000000000000000000000081526004016106239061177e565b60405180910390fd5b600160028760405161063e91906115aa565b908152602001604051809103902060003373ffffffffffffffffffffffffffffffffffffffff1673ffffffffffffffffffffffffffffffffffffffff1681526020019081526020016000206000828254610698919061165c565b925050819055506001856106ac919061165c565b6005876040516106bc91906115aa565b9081526020016040518091039020819055503373ffffffffffffffffffffffffffffffffffffffff167f880b760c6ea6e51da93144cd35b0207b1d5df64ee78b3a74289fd8c2e2866c348760018587610715919061165c565b86888a60405161072a969594939291906117e3565b60405180910390a2600060068760405161074491906115aa565b908152602001604051809103902060009054906101000a900473ffffffffffffffffffffffffffffffffffffffff16905060008173ffffffffffffffffffffffffffffffffffffffff168460405161079b9061187c565b60006040518083038185875af1925050503d80600081146107d8576040519150601f19603f3d011682016040523d82523d6000602084013e6107dd565b606091505b5050905080610821576040517f08c379a0000000000000000000000000000000000000000000000000000000008152600401610818906118dd565b60405180910390fd5b5050505050505050565b60015481565b600382805160208101820180518482526020830160208501208183528095505050505050602052806000526040600020600091509150505481565b600282805160208101820180518482526020830160208501208183528095505050505050602052806000526040600020600091509150505481565b6000806108b3836104cd565b90506000670de0b6b3a7640000600154836108ce9190611690565b6108d89190611701565b905080826108e6919061165c565b92505050919050565b600060058260405161090191906115aa565b908152602001604051809103902054905060018111610955576040517f08c379a000000000000000000000000000000000000000000000000000000000815260040161094c90611949565b60405180910390fd5b600160028360405161096791906115aa565b908152602001604051809103902060003373ffffffffffffffffffffffffffffffffffffffff1673ffffffffffffffffffffffffffffffffffffffff1681526020019081526020016000205410156109f4576040517f08c379a00000000000000000000000000000000000000000000000000000000081526004016109eb906119b5565b60405180910390fd5b6000610a0b600183610a0691906119d5565b610dd7565b90506000670de0b6b3a764000060015483610a269190611690565b610a309190611701565b9050600080831115610a5457610a51600285610a4c91906119d5565b610dd7565b90505b6001600286604051610a6691906115aa565b908152602001604051809103902060003373ffffffffffffffffffffffffffffffffffffffff1673ffffffffffffffffffffffffffffffffffffffff1681526020019081526020016000206000828254610ac091906119d5565b92505081905550600184610ad491906119d5565b600586604051610ae491906115aa565b9081526020016040518091039020819055503373ffffffffffffffffffffffffffffffffffffffff167fbb8d643994375718ee4eedf75e18d03bb94e483a95c9e2c41d149e3771c441368660018587610b3d91906119d5565b868887604051610b52969594939291906117e3565b60405180910390a26000600686604051610b6c91906115aa565b908152602001604051809103902060009054906101000a900473ffffffffffffffffffffffffffffffffffffffff16905060003373ffffffffffffffffffffffffffffffffffffffff168486610bc291906119d5565b604051610bce9061187c565b60006040518083038185875af1925050503d8060008114610c0b576040519150601f19603f3d011682016040523d82523d6000602084013e610c10565b606091505b5050905060008273ffffffffffffffffffffffffffffffffffffffff1685604051610c3a9061187c565b60006040518083038185875af1925050503d8060008114610c77576040519150601f19603f3d011682016040523d82523d6000602084013e610c7c565b606091505b50509050818015610c8a5750805b610cc9576040517f08c379a0000000000000000000000000000000000000000000000000000000008152600401610cc0906118dd565b60405180910390fd5b5050505050505050565b60005481565b600080610ce583610d21565b90506000670de0b6b3a764000060015483610d009190611690565b610d0a9190611701565b90508082610d1891906119d5565b92505050919050565b6000610d566001600584604051610d3891906115aa565b908152602001604051809103902054610d5191906119d5565b610dd7565b9050919050565b6006818051602081018201805184825260208301602085012081835280955050505050506000915054906101000a900473ffffffffffffffffffffffffffffffffffffffff1681565b50565b6005818051602081018201805184825260208301602085012081835280955050505050506000915090505481565b600066038d7ea4c6800082610dec9190611690565b9050919050565b600073ffffffffffffffffffffffffffffffffffffffff16600682604051610e1b91906115aa565b908152602001604051809103902060009054906101000a900473ffffffffffffffffffffffffffffffffffffffff1673ffffffffffffffffffffffffffffffffffffffff1614610ea0576040517f08c379a0000000000000000000000000000000000000000000000000000000008152600401610e9790611a55565b60405180910390fd5b81600682604051610eb191906115aa565b908152602001604051809103902060006101000a81548173ffffffffffffffffffffffffffffffffffffffff021916908373ffffffffffffffffffffffffffffffffffffffff16021790555080600460003373ffffffffffffffffffffffffffffffffffffffff1673ffffffffffffffffffffffffffffffffffffffff1681526020019081526020016000209081610f499190611c17565b506000610f566000610dd7565b90506000610f646001610dd7565b9050600283604051610f7691906115aa565b908152602001604051809103902060003373ffffffffffffffffffffffffffffffffffffffff1673ffffffffffffffffffffffffffffffffffffffff1681526020019081526020016000206000815480929190610fd290611ce9565b9190505550600583604051610fe791906115aa565b9081526020016040518091039020600081548092919061100690611ce9565b91905055503373ffffffffffffffffffffffffffffffffffffffff168473ffffffffffffffffffffffffffffffffffffffff167f7a7e2504182796814dbb8b723c9844f3455babc0f829953f7f9a3cb7d92e2b988560405161106891906111ff565b60405180910390a33373ffffffffffffffffffffffffffffffffffffffff167f880b760c6ea6e51da93144cd35b0207b1d5df64ee78b3a74289fd8c2e2866c3484600160008087876040516110c296959493929190611d6c565b60405180910390a250505050565b6000604051905090565b600080fd5b600080fd5b600073ffffffffffffffffffffffffffffffffffffffff82169050919050565b600061110f826110e4565b9050919050565b61111f81611104565b811461112a57600080fd5b50565b60008135905061113c81611116565b92915050565b600060208284031215611158576111576110da565b5b60006111668482850161112d565b91505092915050565b600081519050919050565b600082825260208201905092915050565b60005b838110156111a957808201518184015260208101905061118e565b60008484015250505050565b6000601f19601f8301169050919050565b60006111d18261116f565b6111db818561117a565b93506111eb81856020860161118b565b6111f4816111b5565b840191505092915050565b6000602082019050818103600083015261121981846111c6565b905092915050565b600080fd5b600080fd5b7f4e487b7100000000000000000000000000000000000000000000000000000000600052604160045260246000fd5b611263826111b5565b810181811067ffffffffffffffff821117156112825761128161122b565b5b80604052505050565b60006112956110d0565b90506112a1828261125a565b919050565b600067ffffffffffffffff8211156112c1576112c061122b565b5b6112ca826111b5565b9050602081019050919050565b82818337600083830152505050565b60006112f96112f4846112a6565b61128b565b90508281526020810184848401111561131557611314611226565b5b6113208482856112d7565b509392505050565b600082601f83011261133d5761133c611221565b5b813561134d8482602086016112e6565b91505092915050565b60006020828403121561136c5761136b6110da565b5b600082013567ffffffffffffffff81111561138a576113896110df565b5b61139684828501611328565b91505092915050565b6000819050919050565b6113b28161139f565b82525050565b60006020820190506113cd60008301846113a9565b92915050565b600080604083850312156113ea576113e96110da565b5b600083013567ffffffffffffffff811115611408576114076110df565b5b61141485828601611328565b92505060206114258582860161112d565b9150509250929050565b61143881611104565b82525050565b6000602082019050611453600083018461142f565b92915050565b6114628161139f565b811461146d57600080fd5b50565b60008135905061147f81611459565b92915050565b60006020828403121561149b5761149a6110da565b5b60006114a984828501611470565b91505092915050565b600080604083850312156114c9576114c86110da565b5b60006114d78582860161112d565b925050602083013567ffffffffffffffff8111156114f8576114f76110df565b5b61150485828601611328565b9150509250929050565b7f4e487b7100000000000000000000000000000000000000000000000000000000600052602260045260246000fd5b6000600282049050600182168061155557607f821691505b6020821081036115685761156761150e565b5b50919050565b600081905092915050565b60006115848261116f565b61158e818561156e565b935061159e81856020860161118b565b80840191505092915050565b60006115b68284611579565b915081905092915050565b7f50726f6475637420646f6573206e6f7420657869737420796574000000000000600082015250565b60006115f7601a8361117a565b9150611602826115c1565b602082019050919050565b60006020820190508181036000830152611626816115ea565b9050919050565b7f4e487b7100000000000000000000000000000000000000000000000000000000600052601160045260246000fd5b60006116678261139f565b91506116728361139f565b925082820190508082111561168a5761168961162d565b5b92915050565b600061169b8261139f565b91506116a68361139f565b92508282026116b48161139f565b915082820484148315176116cb576116ca61162d565b5b5092915050565b7f4e487b7100000000000000000000000000000000000000000000000000000000600052601260045260246000fd5b600061170c8261139f565b91506117178361139f565b925082611727576117266116d2565b5b828204905092915050565b7f496e73756666696369656e74207061796d656e74000000000000000000000000600082015250565b600061176860148361117a565b915061177382611732565b602082019050919050565b600060208201905081810360008301526117978161175b565b9050919050565b6000819050919050565b6000819050919050565b60006117cd6117c86117c38461179e565b6117a8565b61139f565b9050919050565b6117dd816117b2565b82525050565b600060c08201905081810360008301526117fd81896111c6565b905061180c60208301886117d4565b61181960408301876113a9565b61182660608301866113a9565b61183360808301856113a9565b61184060a08301846113a9565b979650505050505050565b600081905092915050565b50565b600061186660008361184b565b915061187182611856565b600082019050919050565b600061188782611859565b9150819050919050565b7f46756e6473207472616e73666572206661696c65640000000000000000000000600082015250565b60006118c760158361117a565b91506118d282611891565b602082019050919050565b600060208201905081810360008301526118f6816118ba565b9050919050565b7f43616e6e6f742073656c6c206c617374206b6579000000000000000000000000600082015250565b600061193360148361117a565b915061193e826118fd565b602082019050919050565b6000602082019050818103600083015261196281611926565b9050919050565b7f496e73756666696369656e74206b657973000000000000000000000000000000600082015250565b600061199f60118361117a565b91506119aa82611969565b602082019050919050565b600060208201905081810360008301526119ce81611992565b9050919050565b60006119e08261139f565b91506119eb8361139f565b9250828203905081811115611a0357611a0261162d565b5b92915050565b7f50726f6475637420616c72656164792065786973747300000000000000000000600082015250565b6000611a3f60168361117a565b9150611a4a82611a09565b602082019050919050565b60006020820190508181036000830152611a6e81611a32565b9050919050565b60008190508160005260206000209050919050565b60006020601f8301049050919050565b600082821b905092915050565b600060088302611ad77fffffffffffffffffffffffffffffffffffffffffffffffffffffffffffffffff82611a9a565b611ae18683611a9a565b95508019841693508086168417925050509392505050565b6000611b14611b0f611b0a8461139f565b6117a8565b61139f565b9050919050565b6000819050919050565b611b2e83611af9565b611b42611b3a82611b1b565b848454611aa7565b825550505050565b600090565b611b57611b4a565b611b62818484611b25565b505050565b5b81811015611b8657611b7b600082611b4f565b600181019050611b68565b5050565b601f821115611bcb57611b9c81611a75565b611ba584611a8a565b81016020851015611bb4578190505b611bc8611bc085611a8a565b830182611b67565b50505b505050565b600082821c905092915050565b6000611bee60001984600802611bd0565b1980831691505092915050565b6000611c078383611bdd565b9150826002028217905092915050565b611c208261116f565b67ffffffffffffffff811115611c3957611c3861122b565b5b611c43825461153d565b611c4e828285611b8a565b600060209050601f831160018114611c815760008415611c6f578287015190505b611c798582611bfb565b865550611ce1565b601f198416611c8f86611a75565b60005b82811015611cb757848901518255600182019150602085019450602081019050611c92565b86831015611cd45784890151611cd0601f891682611bdd565b8355505b6001600288020188555050505b505050505050565b6000611cf48261139f565b91507fffffffffffffffffffffffffffffffffffffffffffffffffffffffffffffffff8203611d2657611d2561162d565b5b600182019050919050565b6000819050919050565b6000611d56611d51611d4c84611d31565b6117a8565b61139f565b9050919050565b611d6681611d3b565b82525050565b600060c0820190508181036000830152611d8681896111c6565b9050611d9560208301886117d4565b611da26040830187611d5d565b611daf6060830186611d5d565b611dbc60808301856113a9565b611dc960a08301846113a9565b97965050505050505056fea264697066735822122091c7e5bd26fc32803b3c34b097384c0f610b94e54e7f9176c6a5b269988999ed64736f6c63430008130033",
  "linkReferences": {},
  "deployedLinkReferences": {}
}