{
  "_format": "hh-sol-artifact-1",
  "contractName": "ProductKeys",
  "sourceName": "contracts/ProductKeys.sol",
  "abi": [
    {
      "inputs": [
        {
          "internalType": "uint256",
          "name": "productFee",
          "type": "uint256"
        }
      ],
      "stateMutability": "nonpayable",
      "type": "constructor"
    },
    {
      "anonymous": false,
      "inputs": [
        {
          "indexed": true,
          "internalType": "address",
          "name": "_safe",
          "type": "address"
        },
        {
          "indexed": true,
          "internalType": "address",
          "name": "_owner",
          "type": "address"
        },
        {
          "indexed": false,
          "internalType": "string",
          "name": "_productSlug",
          "type": "string"
        }
      ],
      "name": "ProductCreated",
      "type": "event"
    },
    {
      "anonymous": false,
      "inputs": [
        {
          "indexed": false,
          "internalType": "string",
          "name": "_productSlug",
          "type": "string"
        },
        {
          "indexed": true,
          "internalType": "address",
          "name": "_buyer",
          "type": "address"
        },
        {
          "indexed": false,
          "internalType": "uint256",
          "name": "_amountOfKeys",
          "type": "uint256"
        },
        {
          "indexed": false,
          "internalType": "uint256",
          "name": "_ethSpent",
          "type": "uint256"
        },
        {
          "indexed": false,
          "internalType": "uint256",
          "name": "_ownerFee",
          "type": "uint256"
        }
      ],
      "name": "ProductKeyBought",
      "type": "event"
    },
    {
      "anonymous": false,
      "inputs": [
        {
          "indexed": false,
          "internalType": "string",
          "name": "_productSlug",
          "type": "string"
        },
        {
          "indexed": true,
          "internalType": "address",
          "name": "_buyer",
          "type": "address"
        },
        {
          "indexed": false,
          "internalType": "uint256",
          "name": "_amountOfKeys",
          "type": "uint256"
        },
        {
          "indexed": false,
          "internalType": "uint256",
          "name": "_ethSpent",
          "type": "uint256"
        },
        {
          "indexed": false,
          "internalType": "uint256",
          "name": "_ownerFee",
          "type": "uint256"
        }
      ],
      "name": "productKeysold",
      "type": "event"
    },
    {
      "inputs": [
        {
          "internalType": "string",
          "name": "productSlug",
          "type": "string"
        }
      ],
      "name": "buyKey",
      "outputs": [],
      "stateMutability": "payable",
      "type": "function"
    },
    {
      "inputs": [
        {
          "internalType": "address",
          "name": "safe",
          "type": "address"
        },
        {
          "internalType": "string",
          "name": "name",
          "type": "string"
        }
      ],
      "name": "createProduct",
      "outputs": [],
      "stateMutability": "nonpayable",
      "type": "function"
    },
    {
      "inputs": [
        {
          "internalType": "string",
          "name": "productSlug",
          "type": "string"
        },
        {
          "internalType": "uint256",
          "name": "amount",
          "type": "uint256"
        }
      ],
      "name": "getBuyPrice",
      "outputs": [
        {
          "internalType": "uint256",
          "name": "",
          "type": "uint256"
        }
      ],
      "stateMutability": "view",
      "type": "function"
    },
    {
      "inputs": [
        {
          "internalType": "string",
          "name": "productSlug",
          "type": "string"
        },
        {
          "internalType": "uint256",
          "name": "amount",
          "type": "uint256"
        }
      ],
      "name": "getBuyPriceAfterFee",
      "outputs": [
        {
          "internalType": "uint256",
          "name": "",
          "type": "uint256"
        }
      ],
      "stateMutability": "view",
      "type": "function"
    },
    {
      "inputs": [
        {
          "internalType": "uint256",
          "name": "supply",
          "type": "uint256"
        },
        {
          "internalType": "uint256",
          "name": "amount",
          "type": "uint256"
        }
      ],
      "name": "getPrice",
      "outputs": [
        {
          "internalType": "uint256",
          "name": "",
          "type": "uint256"
        }
      ],
      "stateMutability": "pure",
      "type": "function"
    },
    {
      "inputs": [
        {
          "internalType": "string",
          "name": "productSlug",
          "type": "string"
        },
        {
          "internalType": "uint256",
          "name": "amount",
          "type": "uint256"
        }
      ],
      "name": "getSellPrice",
      "outputs": [
        {
          "internalType": "uint256",
          "name": "",
          "type": "uint256"
        }
      ],
      "stateMutability": "view",
      "type": "function"
    },
    {
      "inputs": [
        {
          "internalType": "string",
          "name": "productSlug",
          "type": "string"
        },
        {
          "internalType": "uint256",
          "name": "amount",
          "type": "uint256"
        }
      ],
      "name": "getSellPriceAfterFee",
      "outputs": [
        {
          "internalType": "uint256",
          "name": "",
          "type": "uint256"
        }
      ],
      "stateMutability": "view",
      "type": "function"
    },
    {
      "inputs": [
        {
          "internalType": "address",
          "name": "",
          "type": "address"
        }
      ],
      "name": "owners",
      "outputs": [
        {
          "internalType": "string",
          "name": "",
          "type": "string"
        }
      ],
      "stateMutability": "view",
      "type": "function"
    },
    {
      "inputs": [],
      "name": "productFeePercent",
      "outputs": [
        {
          "internalType": "uint256",
          "name": "",
          "type": "uint256"
        }
      ],
      "stateMutability": "view",
      "type": "function"
    },
    {
      "inputs": [
        {
          "internalType": "string",
          "name": "",
          "type": "string"
        },
        {
          "internalType": "address",
          "name": "",
          "type": "address"
        }
      ],
      "name": "productKeys",
      "outputs": [
        {
          "internalType": "uint256",
          "name": "",
          "type": "uint256"
        }
      ],
      "stateMutability": "view",
      "type": "function"
    },
    {
      "inputs": [
        {
          "internalType": "string",
          "name": "",
          "type": "string"
        }
      ],
      "name": "productKeysSupply",
      "outputs": [
        {
          "internalType": "uint256",
          "name": "",
          "type": "uint256"
        }
      ],
      "stateMutability": "view",
      "type": "function"
    },
    {
      "inputs": [],
      "name": "protocolFeePercent",
      "outputs": [
        {
          "internalType": "uint256",
          "name": "",
          "type": "uint256"
        }
      ],
      "stateMutability": "view",
      "type": "function"
    },
    {
      "inputs": [
        {
          "internalType": "string",
          "name": "",
          "type": "string"
        }
      ],
      "name": "safes",
      "outputs": [
        {
          "internalType": "address",
          "name": "",
          "type": "address"
        }
      ],
      "stateMutability": "view",
      "type": "function"
    },
    {
      "inputs": [
        {
          "internalType": "string",
          "name": "productSlug",
          "type": "string"
        },
        {
          "internalType": "uint256",
          "name": "amount",
          "type": "uint256"
        }
      ],
      "name": "sellKeys",
      "outputs": [],
      "stateMutability": "payable",
      "type": "function"
    }
  ],
  "bytecode": "0x60806040523480156200001157600080fd5b5060405162001f2d38038062001f2d833981810160405281019062000037919062000085565b8060018190555050620000b7565b600080fd5b6000819050919050565b6200005f816200004a565b81146200006b57600080fd5b50565b6000815190506200007f8162000054565b92915050565b6000602082840312156200009e576200009d62000045565b5b6000620000ae848285016200006e565b91505092915050565b611e6680620000c76000396000f3fe6080604052600436106100dd5760003560e01c80639e5fbb231161007f578063d6e6eb9f11610059578063d6e6eb9f146102f0578063d8c1b3371461031b578063e1aa7b8714610358578063f4f9f89f14610395576100dd565b80639e5fbb2314610239578063b9979bd514610276578063c889eba8146102b3576100dd565b80633ebb2b1e116100bb5780633ebb2b1e146101785780635789e35c146101a35780635cf4ee91146101bf5780635f5b9e5f146101fc576100dd565b8063022914a7146100e25780631686b5ee1461011f5780631c3957871461015c575b600080fd5b3480156100ee57600080fd5b506101096004803603810190610104919061111b565b6103be565b60405161011691906111d8565b60405180910390f35b34801561012b57600080fd5b5061014660048036038101906101419190611365565b61045e565b60405161015391906113d0565b60405180910390f35b610176600480360381019061017191906113eb565b6104a8565b005b34801561018457600080fd5b5061018d610789565b60405161019a91906113d0565b60405180910390f35b6101bd60048036038101906101b89190611365565b61078f565b005b3480156101cb57600080fd5b506101e660048036038101906101e19190611434565b610b48565b6040516101f391906113d0565b60405180910390f35b34801561020857600080fd5b50610223600480360381019061021e9190611474565b610c7d565b60405161023091906113d0565b60405180910390f35b34801561024557600080fd5b50610260600480360381019061025b9190611365565b610cb8565b60405161026d91906113d0565b60405180910390f35b34801561028257600080fd5b5061029d60048036038101906102989190611365565b610cea565b6040516102aa91906113d0565b60405180910390f35b3480156102bf57600080fd5b506102da60048036038101906102d59190611365565b610d34565b6040516102e791906113d0565b60405180910390f35b3480156102fc57600080fd5b50610305610d71565b60405161031291906113d0565b60405180910390f35b34801561032757600080fd5b50610342600480360381019061033d91906113eb565b610d77565b60405161034f91906114df565b60405180910390f35b34801561036457600080fd5b5061037f600480360381019061037a91906113eb565b610dc0565b60405161038c91906113d0565b60405180910390f35b3480156103a157600080fd5b506103bc60048036038101906103b791906114fa565b610dee565b005b600360205280600052604060002060009150905080546103dd90611585565b80601f016020809104026020016040519081016040528092919081815260200182805461040990611585565b80156104565780601f1061042b57610100808354040283529160200191610456565b820191906000526020600020905b81548152906001019060200180831161043957829003601f168201915b505050505081565b60008061046b8484610d34565b90506000670de0b6b3a76400006001548361048691906115e5565b6104909190611656565b9050808261049e9190611687565b9250505092915050565b60006004826040516104ba91906116f7565b90815260200160405180910390205490506000810361050e576040517f08c379a00000000000000000000000000000000000000000000000000000000081526004016105059061175a565b60405180910390fd5b600061051b826001610b48565b90506000670de0b6b3a76400006001548361053691906115e5565b6105409190611656565b9050808261054e919061177a565b341015610590576040517f08c379a0000000000000000000000000000000000000000000000000000000008152600401610587906117fa565b60405180910390fd5b60016002856040516105a291906116f7565b908152602001604051809103902060003373ffffffffffffffffffffffffffffffffffffffff1673ffffffffffffffffffffffffffffffffffffffff16815260200190815260200160002060008282546105fc919061177a565b92505081905550600183610610919061177a565b60048560405161062091906116f7565b9081526020016040518091039020819055503373ffffffffffffffffffffffffffffffffffffffff167fc334093920839bf8c9ab5d26b40185909bb3667777a33c516e3974fe752844248560018486610679919061177a565b8560405161068a949392919061185f565b60405180910390a260006005856040516106a491906116f7565b908152602001604051809103902060009054906101000a900473ffffffffffffffffffffffffffffffffffffffff16905060008173ffffffffffffffffffffffffffffffffffffffff16836040516106fb906118dc565b60006040518083038185875af1925050503d8060008114610738576040519150601f19603f3d011682016040523d82523d6000602084013e61073d565b606091505b5050905080610781576040517f08c379a00000000000000000000000000000000000000000000000000000000081526004016107789061193d565b60405180910390fd5b505050505050565b60015481565b60006004836040516107a191906116f7565b90815260200160405180910390205490508181116107f4576040517f08c379a00000000000000000000000000000000000000000000000000000000081526004016107eb906119a9565b60405180910390fd5b8160028460405161080591906116f7565b908152602001604051809103902060003373ffffffffffffffffffffffffffffffffffffffff1673ffffffffffffffffffffffffffffffffffffffff168152602001908152602001600020541015610892576040517f08c379a000000000000000000000000000000000000000000000000000000000815260040161088990611a15565b60405180910390fd5b60006108a983836108a39190611687565b84610b48565b90506000670de0b6b3a7640000600154836108c491906115e5565b6108ce9190611656565b9050836002866040516108e191906116f7565b908152602001604051809103902060003373ffffffffffffffffffffffffffffffffffffffff1673ffffffffffffffffffffffffffffffffffffffff168152602001908152602001600020600082825461093b9190611687565b92505081905550838361094e9190611687565b60048660405161095e91906116f7565b9081526020016040518091039020819055503373ffffffffffffffffffffffffffffffffffffffff167fa364c4354ba24d346009576f11caaf029db5eec2e19d884a4abb4e4f7dfee4ae868684866109b69190611687565b856040516109c79493929190611a35565b60405180910390a260006005866040516109e191906116f7565b908152602001604051809103902060009054906101000a900473ffffffffffffffffffffffffffffffffffffffff16905060003373ffffffffffffffffffffffffffffffffffffffff168385610a379190611687565b604051610a43906118dc565b60006040518083038185875af1925050503d8060008114610a80576040519150601f19603f3d011682016040523d82523d6000602084013e610a85565b606091505b5050905060008273ffffffffffffffffffffffffffffffffffffffff1684604051610aaf906118dc565b60006040518083038185875af1925050503d8060008114610aec576040519150601f19603f3d011682016040523d82523d6000602084013e610af1565b606091505b50509050818015610aff5750805b610b3e576040517f08c379a0000000000000000000000000000000000000000000000000000000008152600401610b359061193d565b60405180910390fd5b5050505050505050565b60008060008414610baa57600660018086610b639190611687565b6002610b6f91906115e5565b610b79919061177a565b85600187610b879190611687565b610b9191906115e5565b610b9b91906115e5565b610ba59190611656565b610bad565b60005b905060008085148015610bc05750600184145b610c3c5760066001808688610bd5919061177a565b610bdf9190611687565b6002610beb91906115e5565b610bf5919061177a565b8587610c01919061177a565b60018789610c0f919061177a565b610c199190611687565b610c2391906115e5565b610c2d91906115e5565b610c379190611656565b610c3f565b60005b905060008282610c4f9190611687565b9050613e80670de0b6b3a764000082610c6891906115e5565b610c729190611656565b935050505092915050565b600282805160208101820180518482526020830160208501208183528095505050505050602052806000526040600020600091509150505481565b6000610ce2600484604051610ccd91906116f7565b90815260200160405180910390205483610b48565b905092915050565b600080610cf78484610cb8565b90506000670de0b6b3a764000060015483610d1291906115e5565b610d1c9190611656565b90508082610d2a919061177a565b9250505092915050565b6000610d6982600485604051610d4a91906116f7565b908152602001604051809103902054610d639190611687565b83610b48565b905092915050565b60005481565b6005818051602081018201805184825260208301602085012081835280955050505050506000915054906101000a900473ffffffffffffffffffffffffffffffffffffffff1681565b6004818051602081018201805184825260208301602085012081835280955050505050506000915090505481565b600073ffffffffffffffffffffffffffffffffffffffff16600582604051610e1691906116f7565b908152602001604051809103902060009054906101000a900473ffffffffffffffffffffffffffffffffffffffff1673ffffffffffffffffffffffffffffffffffffffff1614610e9b576040517f08c379a0000000000000000000000000000000000000000000000000000000008152600401610e9290611acd565b60405180910390fd5b81600582604051610eac91906116f7565b908152602001604051809103902060006101000a81548173ffffffffffffffffffffffffffffffffffffffff021916908373ffffffffffffffffffffffffffffffffffffffff16021790555080600360003373ffffffffffffffffffffffffffffffffffffffff1673ffffffffffffffffffffffffffffffffffffffff1681526020019081526020016000209081610f449190611c8f565b50600281604051610f5591906116f7565b908152602001604051809103902060003373ffffffffffffffffffffffffffffffffffffffff1673ffffffffffffffffffffffffffffffffffffffff1681526020019081526020016000206000815480929190610fb190611d61565b9190505550600481604051610fc691906116f7565b90815260200160405180910390206000815480929190610fe590611d61565b91905055503373ffffffffffffffffffffffffffffffffffffffff168273ffffffffffffffffffffffffffffffffffffffff167f7a7e2504182796814dbb8b723c9844f3455babc0f829953f7f9a3cb7d92e2b988360405161104791906111d8565b60405180910390a33373ffffffffffffffffffffffffffffffffffffffff167fc334093920839bf8c9ab5d26b40185909bb3667777a33c516e3974fe7528442482600160008060405161109d9493929190611de4565b60405180910390a25050565b6000604051905090565b600080fd5b600080fd5b600073ffffffffffffffffffffffffffffffffffffffff82169050919050565b60006110e8826110bd565b9050919050565b6110f8816110dd565b811461110357600080fd5b50565b600081359050611115816110ef565b92915050565b600060208284031215611131576111306110b3565b5b600061113f84828501611106565b91505092915050565b600081519050919050565b600082825260208201905092915050565b60005b83811015611182578082015181840152602081019050611167565b60008484015250505050565b6000601f19601f8301169050919050565b60006111aa82611148565b6111b48185611153565b93506111c4818560208601611164565b6111cd8161118e565b840191505092915050565b600060208201905081810360008301526111f2818461119f565b905092915050565b600080fd5b600080fd5b7f4e487b7100000000000000000000000000000000000000000000000000000000600052604160045260246000fd5b61123c8261118e565b810181811067ffffffffffffffff8211171561125b5761125a611204565b5b80604052505050565b600061126e6110a9565b905061127a8282611233565b919050565b600067ffffffffffffffff82111561129a57611299611204565b5b6112a38261118e565b9050602081019050919050565b82818337600083830152505050565b60006112d26112cd8461127f565b611264565b9050828152602081018484840111156112ee576112ed6111ff565b5b6112f98482856112b0565b509392505050565b600082601f830112611316576113156111fa565b5b81356113268482602086016112bf565b91505092915050565b6000819050919050565b6113428161132f565b811461134d57600080fd5b50565b60008135905061135f81611339565b92915050565b6000806040838503121561137c5761137b6110b3565b5b600083013567ffffffffffffffff81111561139a576113996110b8565b5b6113a685828601611301565b92505060206113b785828601611350565b9150509250929050565b6113ca8161132f565b82525050565b60006020820190506113e560008301846113c1565b92915050565b600060208284031215611401576114006110b3565b5b600082013567ffffffffffffffff81111561141f5761141e6110b8565b5b61142b84828501611301565b91505092915050565b6000806040838503121561144b5761144a6110b3565b5b600061145985828601611350565b925050602061146a85828601611350565b9150509250929050565b6000806040838503121561148b5761148a6110b3565b5b600083013567ffffffffffffffff8111156114a9576114a86110b8565b5b6114b585828601611301565b92505060206114c685828601611106565b9150509250929050565b6114d9816110dd565b82525050565b60006020820190506114f460008301846114d0565b92915050565b60008060408385031215611511576115106110b3565b5b600061151f85828601611106565b925050602083013567ffffffffffffffff8111156115405761153f6110b8565b5b61154c85828601611301565b9150509250929050565b7f4e487b7100000000000000000000000000000000000000000000000000000000600052602260045260246000fd5b6000600282049050600182168061159d57607f821691505b6020821081036115b0576115af611556565b5b50919050565b7f4e487b7100000000000000000000000000000000000000000000000000000000600052601160045260246000fd5b60006115f08261132f565b91506115fb8361132f565b92508282026116098161132f565b915082820484148315176116205761161f6115b6565b5b5092915050565b7f4e487b7100000000000000000000000000000000000000000000000000000000600052601260045260246000fd5b60006116618261132f565b915061166c8361132f565b92508261167c5761167b611627565b5b828204905092915050565b60006116928261132f565b915061169d8361132f565b92508282039050818111156116b5576116b46115b6565b5b92915050565b600081905092915050565b60006116d182611148565b6116db81856116bb565b93506116eb818560208601611164565b80840191505092915050565b600061170382846116c6565b915081905092915050565b7f50726f6475637420646f6573206e6f7420657869737420796574000000000000600082015250565b6000611744601a83611153565b915061174f8261170e565b602082019050919050565b6000602082019050818103600083015261177381611737565b9050919050565b60006117858261132f565b91506117908361132f565b92508282019050808211156117a8576117a76115b6565b5b92915050565b7f496e73756666696369656e74207061796d656e74000000000000000000000000600082015250565b60006117e4601483611153565b91506117ef826117ae565b602082019050919050565b60006020820190508181036000830152611813816117d7565b9050919050565b6000819050919050565b6000819050919050565b600061184961184461183f8461181a565b611824565b61132f565b9050919050565b6118598161182e565b82525050565b60006080820190508181036000830152611879818761119f565b90506118886020830186611850565b61189560408301856113c1565b6118a260608301846113c1565b95945050505050565b600081905092915050565b50565b60006118c66000836118ab565b91506118d1826118b6565b600082019050919050565b60006118e7826118b9565b9150819050919050565b7f46756e6473207472616e73666572206661696c65640000000000000000000000600082015250565b6000611927601583611153565b9150611932826118f1565b602082019050919050565b600060208201905081810360008301526119568161191a565b9050919050565b7f43616e6e6f742073656c6c206c617374206b6579000000000000000000000000600082015250565b6000611993601483611153565b915061199e8261195d565b602082019050919050565b600060208201905081810360008301526119c281611986565b9050919050565b7f496e73756666696369656e74206b657973000000000000000000000000000000600082015250565b60006119ff601183611153565b9150611a0a826119c9565b602082019050919050565b60006020820190508181036000830152611a2e816119f2565b9050919050565b60006080820190508181036000830152611a4f818761119f565b9050611a5e60208301866113c1565b611a6b60408301856113c1565b611a7860608301846113c1565b95945050505050565b7f50726f6475637420616c72656164792065786973747300000000000000000000600082015250565b6000611ab7601683611153565b9150611ac282611a81565b602082019050919050565b60006020820190508181036000830152611ae681611aaa565b9050919050565b60008190508160005260206000209050919050565b60006020601f8301049050919050565b600082821b905092915050565b600060088302611b4f7fffffffffffffffffffffffffffffffffffffffffffffffffffffffffffffffff82611b12565b611b598683611b12565b95508019841693508086168417925050509392505050565b6000611b8c611b87611b828461132f565b611824565b61132f565b9050919050565b6000819050919050565b611ba683611b71565b611bba611bb282611b93565b848454611b1f565b825550505050565b600090565b611bcf611bc2565b611bda818484611b9d565b505050565b5b81811015611bfe57611bf3600082611bc7565b600181019050611be0565b5050565b601f821115611c4357611c1481611aed565b611c1d84611b02565b81016020851015611c2c578190505b611c40611c3885611b02565b830182611bdf565b50505b505050565b600082821c905092915050565b6000611c6660001984600802611c48565b1980831691505092915050565b6000611c7f8383611c55565b9150826002028217905092915050565b611c9882611148565b67ffffffffffffffff811115611cb157611cb0611204565b5b611cbb8254611585565b611cc6828285611c02565b600060209050601f831160018114611cf95760008415611ce7578287015190505b611cf18582611c73565b865550611d59565b601f198416611d0786611aed565b60005b82811015611d2f57848901518255600182019150602085019450602081019050611d0a565b86831015611d4c5784890151611d48601f891682611c55565b8355505b6001600288020188555050505b505050505050565b6000611d6c8261132f565b91507fffffffffffffffffffffffffffffffffffffffffffffffffffffffffffffffff8203611d9e57611d9d6115b6565b5b600182019050919050565b6000819050919050565b6000611dce611dc9611dc484611da9565b611824565b61132f565b9050919050565b611dde81611db3565b82525050565b60006080820190508181036000830152611dfe818761119f565b9050611e0d6020830186611850565b611e1a6040830185611dd5565b611e276060830184611dd5565b9594505050505056fea26469706673582212204b9f555eda7dbefed0704d74cf843eef34382b44e97fda48e372bb68f84487e764736f6c63430008130033",
  "linkReferences": {},
  "deployedLinkReferences": {}
}